{
  "contractName": "Organiser",
  "abi": [
    {
      "inputs": [
        {
          "internalType": "uint256",
          "name": "",
          "type": "uint256"
        }
      ],
      "name": "gamesList",
      "outputs": [
        {
          "internalType": "uint256",
          "name": "gameId",
          "type": "uint256"
        },
        {
          "internalType": "address",
          "name": "organiserAddress",
          "type": "address"
        },
        {
          "internalType": "string",
          "name": "Ipfs",
          "type": "string"
        },
        {
          "internalType": "uint256",
          "name": "gameTicketPrice",
          "type": "uint256"
        },
        {
          "internalType": "uint256",
          "name": "streamTicketPrice",
          "type": "uint256"
        },
        {
          "internalType": "uint256",
          "name": "totalRevenue",
          "type": "uint256"
        }
      ],
      "stateMutability": "view",
      "type": "function"
    },
    {
      "inputs": [
        {
          "internalType": "uint256",
          "name": "",
          "type": "uint256"
        }
      ],
      "name": "organisers",
      "outputs": [
        {
          "internalType": "address",
          "name": "",
          "type": "address"
        }
      ],
      "stateMutability": "view",
      "type": "function"
    },
    {
      "inputs": [
        {
          "internalType": "string",
          "name": "_ipfsData",
          "type": "string"
        }
      ],
      "name": "UploadProfile",
      "outputs": [],
      "stateMutability": "nonpayable",
      "type": "function"
    },
    {
      "inputs": [
        {
          "internalType": "string",
          "name": "_ipfs",
          "type": "string"
        },
        {
          "internalType": "uint256",
          "name": "_gameTicketPrice",
          "type": "uint256"
        },
        {
          "internalType": "uint256",
          "name": "_streamTicketPrice",
          "type": "uint256"
        },
        {
          "internalType": "uint256",
          "name": "_prizePoolFromOwner",
          "type": "uint256"
        }
      ],
      "name": "UploadGames",
      "outputs": [],
      "stateMutability": "payable",
      "type": "function"
    },
    {
      "inputs": [
        {
          "internalType": "uint256",
          "name": "_gameId",
          "type": "uint256"
        },
        {
          "internalType": "bool",
          "name": "_bHasGameTicket",
          "type": "bool"
        },
        {
          "internalType": "bool",
          "name": "_bHasStreamTicket",
          "type": "bool"
        },
        {
          "internalType": "uint256",
          "name": "_maxNoPlayer",
          "type": "uint256"
        }
      ],
      "name": "JoinGame",
      "outputs": [],
      "stateMutability": "payable",
      "type": "function"
    },
    {
      "inputs": [
        {
          "internalType": "uint256",
          "name": "_gameid",
          "type": "uint256"
        },
        {
          "internalType": "uint256",
          "name": "score",
          "type": "uint256"
        }
      ],
      "name": "UpdateLeaderBoard",
      "outputs": [],
      "stateMutability": "nonpayable",
      "type": "function"
    },
    {
      "inputs": [
        {
          "internalType": "uint256",
          "name": "_gameid",
          "type": "uint256"
        }
      ],
      "name": "GetReward",
      "outputs": [],
      "stateMutability": "nonpayable",
      "type": "function"
    },
    {
      "inputs": [],
      "name": "getGamesList",
      "outputs": [
        {
          "components": [
            {
              "internalType": "uint256",
              "name": "gameId",
              "type": "uint256"
            },
            {
              "internalType": "address",
              "name": "organiserAddress",
              "type": "address"
            },
            {
              "internalType": "string",
              "name": "Ipfs",
              "type": "string"
            },
            {
              "internalType": "uint256",
              "name": "gameTicketPrice",
              "type": "uint256"
            },
            {
              "internalType": "uint256",
              "name": "streamTicketPrice",
              "type": "uint256"
            },
            {
              "internalType": "uint256",
              "name": "totalRevenue",
              "type": "uint256"
            },
            {
              "components": [
                {
                  "internalType": "address",
                  "name": "playerAddress",
                  "type": "address"
                },
                {
                  "internalType": "uint256",
                  "name": "leaderboardScore",
                  "type": "uint256"
                },
                {
                  "internalType": "bool",
                  "name": "bHasPlayTicket",
                  "type": "bool"
                },
                {
                  "internalType": "bool",
                  "name": "bHasStreamTicket",
                  "type": "bool"
                }
              ],
              "internalType": "struct Organiser.Player[]",
              "name": "playersJoined",
              "type": "tuple[]"
            }
          ],
          "internalType": "struct Organiser.GameData[]",
          "name": "",
          "type": "tuple[]"
        }
      ],
      "stateMutability": "view",
      "type": "function"
    },
    {
      "inputs": [
        {
          "internalType": "uint256",
          "name": "_gameId",
          "type": "uint256"
        }
      ],
      "name": "getGameById",
      "outputs": [
        {
          "components": [
            {
              "internalType": "uint256",
              "name": "gameId",
              "type": "uint256"
            },
            {
              "internalType": "address",
              "name": "organiserAddress",
              "type": "address"
            },
            {
              "internalType": "string",
              "name": "Ipfs",
              "type": "string"
            },
            {
              "internalType": "uint256",
              "name": "gameTicketPrice",
              "type": "uint256"
            },
            {
              "internalType": "uint256",
              "name": "streamTicketPrice",
              "type": "uint256"
            },
            {
              "internalType": "uint256",
              "name": "totalRevenue",
              "type": "uint256"
            },
            {
              "components": [
                {
                  "internalType": "address",
                  "name": "playerAddress",
                  "type": "address"
                },
                {
                  "internalType": "uint256",
                  "name": "leaderboardScore",
                  "type": "uint256"
                },
                {
                  "internalType": "bool",
                  "name": "bHasPlayTicket",
                  "type": "bool"
                },
                {
                  "internalType": "bool",
                  "name": "bHasStreamTicket",
                  "type": "bool"
                }
              ],
              "internalType": "struct Organiser.Player[]",
              "name": "playersJoined",
              "type": "tuple[]"
            }
          ],
          "internalType": "struct Organiser.GameData",
          "name": "",
          "type": "tuple"
        }
      ],
      "stateMutability": "view",
      "type": "function"
    },
    {
      "inputs": [
        {
          "internalType": "address",
          "name": "user",
          "type": "address"
        }
      ],
      "name": "getGamesStatus",
      "outputs": [
        {
          "internalType": "uint256[]",
          "name": "",
          "type": "uint256[]"
        },
        {
          "internalType": "uint256[]",
          "name": "",
          "type": "uint256[]"
        },
        {
          "internalType": "uint256",
          "name": "",
          "type": "uint256"
        },
        {
          "internalType": "string",
          "name": "",
          "type": "string"
        },
        {
          "components": [
            {
              "internalType": "uint256",
              "name": "gameId",
              "type": "uint256"
            },
            {
              "internalType": "bool",
              "name": "isCollected",
              "type": "bool"
            }
          ],
          "internalType": "struct Organiser.GameStatus[]",
          "name": "",
          "type": "tuple[]"
        }
      ],
      "stateMutability": "view",
      "type": "function"
    }
  ],
  "bytecode": "0x6080604052348015600e575f80fd5b506131378061001c5f395ff3fe608060405260043610610090575f3560e01c80637b8f4222116100585780637b8f42221461019557806385b615b8146101bd578063bed16fa6146101e5578063dd795b051461020f578063f69371451461022b57610090565b8063073aa0031461009457806309660513146100b057806335de163c146100ec578063411b783b146101145780635054c0a314610154575b5f80fd5b6100ae60048036038101906100a991906121bb565b610267565b005b3480156100bb575f80fd5b506100d660048036038101906100d1919061221f565b610605565b6040516100e391906124b2565b60405180910390f35b3480156100f7575f80fd5b50610112600480360381019061010d919061221f565b610881565b005b34801561011f575f80fd5b5061013a600480360381019061013591906124fc565b611420565b60405161014b9594939291906126fb565b60405180910390f35b34801561015f575f80fd5b5061017a6004803603810190610175919061221f565b6119b5565b60405161018c96959493929190612777565b60405180910390f35b3480156101a0575f80fd5b506101bb60048036038101906101b691906127dd565b611aa1565b005b3480156101c8575f80fd5b506101e360048036038101906101de9190612947565b611bc2565b005b3480156101f0575f80fd5b506101f9611c13565b6040516102069190612ae9565b60405180910390f35b61022960048036038101906102249190612b09565b611e6a565b005b348015610236575f80fd5b50610251600480360381019061024c919061221f565b6120a0565b60405161025e9190612b89565b60405180910390f35b60018054905084106102ae576040517f08c379a00000000000000000000000000000000000000000000000000000000081526004016102a590612bec565b60405180910390fd5b80600185815481106102c3576102c2612c0a565b5b905f5260205f2090600702016006018054905010610316576040517f08c379a000000000000000000000000000000000000000000000000000000000815260040161030d90612c81565b60405180910390fd5b5f831561034f576001858154811061033157610330612c0a565b5b905f5260205f209060070201600301548161034c9190612ccc565b90505b8215610387576001858154811061036957610368612c0a565b5b905f5260205f20906007020160040154816103849190612ccc565b90505b803410156103ca576040517f08c379a00000000000000000000000000000000000000000000000000000000081526004016103c190612d49565b60405180910390fd5b600185815481106103de576103dd612c0a565b5b905f5260205f20906007020160060160405180608001604052803373ffffffffffffffffffffffffffffffffffffffff1681526020015f81526020018615158152602001851515815250908060018154018082558091505060019003905f5260205f2090600302015f909190919091505f820151815f015f6101000a81548173ffffffffffffffffffffffffffffffffffffffff021916908373ffffffffffffffffffffffffffffffffffffffff160217905550602082015181600101556040820151816002015f6101000a81548160ff02191690831515021790555060608201518160020160016101000a81548160ff021916908315150217905550505060025f3373ffffffffffffffffffffffffffffffffffffffff1673ffffffffffffffffffffffffffffffffffffffff1681526020019081526020015f205f0185908060018154018082558091505060019003905f5260205f20015f90919091909150555f60025f3373ffffffffffffffffffffffffffffffffffffffff1673ffffffffffffffffffffffffffffffffffffffff1681526020019081526020015f206003015f8781526020019081526020015f205f6101000a81548160ff021916908315150217905550803411156105fe573373ffffffffffffffffffffffffffffffffffffffff166108fc82346105d49190612d67565b90811502906040515f60405180830381858888f193505050501580156105fc573d5f803e3d5ffd5b505b5050505050565b61060d6120da565b6001805490508210610654576040517f08c379a000000000000000000000000000000000000000000000000000000000815260040161064b90612bec565b60405180910390fd5b6001828154811061066857610667612c0a565b5b905f5260205f2090600702016040518060e00160405290815f8201548152602001600182015f9054906101000a900473ffffffffffffffffffffffffffffffffffffffff1673ffffffffffffffffffffffffffffffffffffffff1673ffffffffffffffffffffffffffffffffffffffff1681526020016002820180546106ed90612dc7565b80601f016020809104026020016040519081016040528092919081815260200182805461071990612dc7565b80156107645780601f1061073b57610100808354040283529160200191610764565b820191905f5260205f20905b81548152906001019060200180831161074757829003601f168201915b5050505050815260200160038201548152602001600482015481526020016005820154815260200160068201805480602002602001604051908101604052809291908181526020015f905b82821015610872578382905f5260205f2090600302016040518060800160405290815f82015f9054906101000a900473ffffffffffffffffffffffffffffffffffffffff1673ffffffffffffffffffffffffffffffffffffffff1673ffffffffffffffffffffffffffffffffffffffff16815260200160018201548152602001600282015f9054906101000a900460ff161515151581526020016002820160019054906101000a900460ff161515151581525050815260200190600101906107af565b50505050815250509050919050565b60025f3373ffffffffffffffffffffffffffffffffffffffff1673ffffffffffffffffffffffffffffffffffffffff1681526020019081526020015f206003015f8281526020019081526020015f205f9054906101000a900460ff1661141d575f600182815481106108f6576108f5612c0a565b5b905f5260205f2090600702016006018054905090505f600183815481106109205761091f612c0a565b5b905f5260205f2090600702016005015490506001838154811061094657610945612c0a565b5b905f5260205f2090600702016001015f9054906101000a900473ffffffffffffffffffffffffffffffffffffffff1673ffffffffffffffffffffffffffffffffffffffff163373ffffffffffffffffffffffffffffffffffffffff1603610adf573373ffffffffffffffffffffffffffffffffffffffff166108fc606483600f6109d09190612df7565b6109da9190612e65565b90811502906040515f60405180830381858888f19350505050158015610a02573d5f803e3d5ffd5b50606481600f610a129190612df7565b610a1c9190612e65565b60025f3373ffffffffffffffffffffffffffffffffffffffff1673ffffffffffffffffffffffffffffffffffffffff1681526020019081526020015f206002015f828254610a6a9190612ccc565b92505081905550600160025f3373ffffffffffffffffffffffffffffffffffffffff1673ffffffffffffffffffffffffffffffffffffffff1681526020019081526020015f206003015f8581526020019081526020015f205f6101000a81548160ff021916908315150217905550505061141d565b73885df0da95b731d9ce9f4f56afe5762fd23e573c73ffffffffffffffffffffffffffffffffffffffff163373ffffffffffffffffffffffffffffffffffffffff1603610c5e573373ffffffffffffffffffffffffffffffffffffffff166108fc6064836005610b4f9190612df7565b610b599190612e65565b90811502906040515f60405180830381858888f19350505050158015610b81573d5f803e3d5ffd5b506064816005610b919190612df7565b610b9b9190612e65565b60025f3373ffffffffffffffffffffffffffffffffffffffff1673ffffffffffffffffffffffffffffffffffffffff1681526020019081526020015f206002015f828254610be99190612ccc565b92505081905550600160025f3373ffffffffffffffffffffffffffffffffffffffff1673ffffffffffffffffffffffffffffffffffffffff1681526020019081526020015f206003015f8581526020019081526020015f205f6101000a81548160ff021916908315150217905550505061141d565b5f80600190505f805b85811015610d59573373ffffffffffffffffffffffffffffffffffffffff1660018881548110610c9a57610c99612c0a565b5b905f5260205f2090600702016006018281548110610cbb57610cba612c0a565b5b905f5260205f2090600302015f015f9054906101000a900473ffffffffffffffffffffffffffffffffffffffff1673ffffffffffffffffffffffffffffffffffffffff1603610d4c5760018781548110610d1857610d17612c0a565b5b905f5260205f2090600702016006018181548110610d3957610d38612c0a565b5b905f5260205f2090600302016001015493505b8080600101915050610c67565b505f5b85811015610ed2573373ffffffffffffffffffffffffffffffffffffffff1660018881548110610d8f57610d8e612c0a565b5b905f5260205f2090600702016006018281548110610db057610daf612c0a565b5b905f5260205f2090600302015f015f9054906101000a900473ffffffffffffffffffffffffffffffffffffffff1673ffffffffffffffffffffffffffffffffffffffff1614610ec0578360018881548110610e0e57610e0d612c0a565b5b905f5260205f2090600702016006018281548110610e2f57610e2e612c0a565b5b905f5260205f209060030201600101541115610e5957600183610e529190612ccc565b9250610ebb565b8360018881548110610e6e57610e6d612c0a565b5b905f5260205f2090600702016006018281548110610e8f57610e8e612c0a565b5b905f5260205f2090600302016001015403610eba5781610eb957600183610eb69190612ccc565b92505b5b5b610ec5565b600191505b8080600101915050610d5c565b5060018203611011573373ffffffffffffffffffffffffffffffffffffffff166108fc606486601e610f049190612df7565b610f0e9190612e65565b90811502906040515f60405180830381858888f19350505050158015610f36573d5f803e3d5ffd5b50606484601e610f469190612df7565b610f509190612e65565b60025f3373ffffffffffffffffffffffffffffffffffffffff1673ffffffffffffffffffffffffffffffffffffffff1681526020019081526020015f206002015f828254610f9e9190612ccc565b92505081905550600160025f3373ffffffffffffffffffffffffffffffffffffffff1673ffffffffffffffffffffffffffffffffffffffff1681526020019081526020015f206003015f8881526020019081526020015f205f6101000a81548160ff021916908315150217905550611417565b6002820361114f573373ffffffffffffffffffffffffffffffffffffffff166108fc60648660146110429190612df7565b61104c9190612e65565b90811502906040515f60405180830381858888f19350505050158015611074573d5f803e3d5ffd5b5060648460146110849190612df7565b61108e9190612e65565b60025f3373ffffffffffffffffffffffffffffffffffffffff1673ffffffffffffffffffffffffffffffffffffffff1681526020019081526020015f206002015f8282546110dc9190612ccc565b92505081905550600160025f3373ffffffffffffffffffffffffffffffffffffffff1673ffffffffffffffffffffffffffffffffffffffff1681526020019081526020015f206003015f8881526020019081526020015f205f6101000a81548160ff021916908315150217905550611416565b6003820361128d573373ffffffffffffffffffffffffffffffffffffffff166108fc606486600f6111809190612df7565b61118a9190612e65565b90811502906040515f60405180830381858888f193505050501580156111b2573d5f803e3d5ffd5b50606484600f6111c29190612df7565b6111cc9190612e65565b60025f3373ffffffffffffffffffffffffffffffffffffffff1673ffffffffffffffffffffffffffffffffffffffff1681526020019081526020015f206002015f82825461121a9190612ccc565b92505081905550600160025f3373ffffffffffffffffffffffffffffffffffffffff1673ffffffffffffffffffffffffffffffffffffffff1681526020019081526020015f206003015f8881526020019081526020015f205f6101000a81548160ff021916908315150217905550611415565b5f6064600a8761129d9190612df7565b6112a79190612e65565b9050600483101580156112c657506003816112c29190612ccc565b8311155b15611413573373ffffffffffffffffffffffffffffffffffffffff166108fc8260646112f29190612df7565b87600f6112ff9190612df7565b6113099190612e65565b90811502906040515f60405180830381858888f19350505050158015611331573d5f803e3d5ffd5b5080606461133f9190612df7565b85600f61134c9190612df7565b6113569190612e65565b60025f3373ffffffffffffffffffffffffffffffffffffffff1673ffffffffffffffffffffffffffffffffffffffff1681526020019081526020015f206002015f8282546113a49190612ccc565b92505081905550600160025f3373ffffffffffffffffffffffffffffffffffffffff1673ffffffffffffffffffffffffffffffffffffffff1681526020019081526020015f206003015f8981526020019081526020015f205f6101000a81548160ff0219169083151502179055505b505b5b5b50505050505b50565b6060805f6060805f60025f8873ffffffffffffffffffffffffffffffffffffffff1673ffffffffffffffffffffffffffffffffffffffff1681526020019081526020015f205f018054806020026020016040519081016040528092919081815260200182805480156114af57602002820191905f5260205f20905b81548152602001906001019080831161149b575b505050505090505f60025f8973ffffffffffffffffffffffffffffffffffffffff1673ffffffffffffffffffffffffffffffffffffffff1681526020019081526020015f2060010180548060200260200160405190810160405280929190818152602001828054801561153f57602002820191905f5260205f20905b81548152602001906001019080831161152b575b505050505090505f815183516115559190612ccc565b67ffffffffffffffff81111561156e5761156d612823565b5b6040519080825280602002602001820160405280156115a757816020015b611594612128565b81526020019060019003908161158c5790505b5090505f5b83518110156116865760405180604001604052808583815181106115d3576115d2612c0a565b5b6020026020010151815260200160025f8d73ffffffffffffffffffffffffffffffffffffffff1673ffffffffffffffffffffffffffffffffffffffff1681526020019081526020015f206003015f87858151811061163457611633612c0a565b5b602002602001015181526020019081526020015f205f9054906101000a900460ff16151581525082828151811061166e5761166d612c0a565b5b602002602001018190525080806001019150506115ac565b505f835190505b8251845161169b9190612ccc565b8110156117735760405180604001604052808483815181106116c0576116bf612c0a565b5b6020026020010151815260200160025f8d73ffffffffffffffffffffffffffffffffffffffff1673ffffffffffffffffffffffffffffffffffffffff1681526020019081526020015f206003015f86858151811061172157611720612c0a565b5b602002602001015181526020019081526020015f205f9054906101000a900460ff16151581525082828151811061175b5761175a612c0a565b5b6020026020010181905250808060010191505061168d565b5060025f8a73ffffffffffffffffffffffffffffffffffffffff1673ffffffffffffffffffffffffffffffffffffffff1681526020019081526020015f205f0160025f8b73ffffffffffffffffffffffffffffffffffffffff1673ffffffffffffffffffffffffffffffffffffffff1681526020019081526020015f2060010160025f8c73ffffffffffffffffffffffffffffffffffffffff1673ffffffffffffffffffffffffffffffffffffffff1681526020019081526020015f206002015460025f8d73ffffffffffffffffffffffffffffffffffffffff1673ffffffffffffffffffffffffffffffffffffffff1681526020019081526020015f2060040184848054806020026020016040519081016040528092919081815260200182805480156118be57602002820191905f5260205f20905b8154815260200190600101908083116118aa575b505050505094508380548060200260200160405190810160405280929190818152602001828054801561190e57602002820191905f5260205f20905b8154815260200190600101908083116118fa575b5050505050935081805461192190612dc7565b80601f016020809104026020016040519081016040528092919081815260200182805461194d90612dc7565b80156119985780601f1061196f57610100808354040283529160200191611998565b820191905f5260205f20905b81548152906001019060200180831161197b57829003601f168201915b505050505091509750975097509750975050505091939590929450565b600181815481106119c4575f80fd5b905f5260205f2090600702015f91509050805f015490806001015f9054906101000a900473ffffffffffffffffffffffffffffffffffffffff1690806002018054611a0e90612dc7565b80601f0160208091040260200160405190810160405280929190818152602001828054611a3a90612dc7565b8015611a855780601f10611a5c57610100808354040283529160200191611a85565b820191905f5260205f20905b815481529060010190602001808311611a6857829003601f168201915b5050505050908060030154908060040154908060050154905086565b5f5b60018381548110611ab757611ab6612c0a565b5b905f5260205f20906007020160060180549050811015611bbd573373ffffffffffffffffffffffffffffffffffffffff1660018481548110611afc57611afb612c0a565b5b905f5260205f2090600702016006018281548110611b1d57611b1c612c0a565b5b905f5260205f2090600302015f015f9054906101000a900473ffffffffffffffffffffffffffffffffffffffff1673ffffffffffffffffffffffffffffffffffffffff1603611bb0578160018481548110611b7b57611b7a612c0a565b5b905f5260205f2090600702016006018281548110611b9c57611b9b612c0a565b5b905f5260205f209060030201600101819055505b8080600101915050611aa3565b505050565b8060025f3373ffffffffffffffffffffffffffffffffffffffff1673ffffffffffffffffffffffffffffffffffffffff1681526020019081526020015f206004019081611c0f9190613032565b5050565b60606001805480602002602001604051908101604052809291908181526020015f905b82821015611e61578382905f5260205f2090600702016040518060e00160405290815f8201548152602001600182015f9054906101000a900473ffffffffffffffffffffffffffffffffffffffff1673ffffffffffffffffffffffffffffffffffffffff1673ffffffffffffffffffffffffffffffffffffffff168152602001600282018054611cc590612dc7565b80601f0160208091040260200160405190810160405280929190818152602001828054611cf190612dc7565b8015611d3c5780601f10611d1357610100808354040283529160200191611d3c565b820191905f5260205f20905b815481529060010190602001808311611d1f57829003601f168201915b5050505050815260200160038201548152602001600482015481526020016005820154815260200160068201805480602002602001604051908101604052809291908181526020015f905b82821015611e4a578382905f5260205f2090600302016040518060800160405290815f82015f9054906101000a900473ffffffffffffffffffffffffffffffffffffffff1673ffffffffffffffffffffffffffffffffffffffff1673ffffffffffffffffffffffffffffffffffffffff16815260200160018201548152602001600282015f9054906101000a900460ff161515151581526020016002820160019054906101000a900460ff16151515158152505081526020019060010190611d87565b505050508152505081526020019060010190611c36565b50505050905090565b80341015611ead576040517f08c379a0000000000000000000000000000000000000000000000000000000008152600401611ea490612d49565b60405180910390fd5b80341115611f05573373ffffffffffffffffffffffffffffffffffffffff166108fc8234611edb9190612d67565b90811502906040515f60405180830381858888f19350505050158015611f03573d5f803e3d5ffd5b505b5f60018054905090506001808160018154018082558091505003905f5260205f209050505f60018281548110611f3e57611f3d612c0a565b5b905f5260205f209060070201905081815f018190555033816001015f6101000a81548173ffffffffffffffffffffffffffffffffffffffff021916908373ffffffffffffffffffffffffffffffffffffffff16021790555085816002019081611fa79190613032565b50848160030181905550838160040181905550825f611fc69190612ccc565b816005018190555060025f3373ffffffffffffffffffffffffffffffffffffffff1673ffffffffffffffffffffffffffffffffffffffff1681526020019081526020015f2060010182908060018154018082558091505060019003905f5260205f20015f90919091909150555f60025f3373ffffffffffffffffffffffffffffffffffffffff1673ffffffffffffffffffffffffffffffffffffffff1681526020019081526020015f206003015f8481526020019081526020015f205f6101000a81548160ff021916908315150217905550505050505050565b5f81815481106120ae575f80fd5b905f5260205f20015f915054906101000a900473ffffffffffffffffffffffffffffffffffffffff1681565b6040518060e001604052805f81526020015f73ffffffffffffffffffffffffffffffffffffffff168152602001606081526020015f81526020015f81526020015f8152602001606081525090565b60405180604001604052805f81526020015f151581525090565b5f604051905090565b5f80fd5b5f80fd5b5f819050919050565b61216581612153565b811461216f575f80fd5b50565b5f813590506121808161215c565b92915050565b5f8115159050919050565b61219a81612186565b81146121a4575f80fd5b50565b5f813590506121b581612191565b92915050565b5f805f80608085870312156121d3576121d261214b565b5b5f6121e087828801612172565b94505060206121f1878288016121a7565b9350506040612202878288016121a7565b925050606061221387828801612172565b91505092959194509250565b5f602082840312156122345761223361214b565b5b5f61224184828501612172565b91505092915050565b61225381612153565b82525050565b5f73ffffffffffffffffffffffffffffffffffffffff82169050919050565b5f61228282612259565b9050919050565b61229281612278565b82525050565b5f81519050919050565b5f82825260208201905092915050565b8281835e5f83830152505050565b5f601f19601f8301169050919050565b5f6122da82612298565b6122e481856122a2565b93506122f48185602086016122b2565b6122fd816122c0565b840191505092915050565b5f81519050919050565b5f82825260208201905092915050565b5f819050602082019050919050565b61233a81612186565b82525050565b608082015f8201516123545f850182612289565b506020820151612367602085018261224a565b50604082015161237a6040850182612331565b50606082015161238d6060850182612331565b50505050565b5f61239e8383612340565b60808301905092915050565b5f602082019050919050565b5f6123c082612308565b6123ca8185612312565b93506123d583612322565b805f5b838110156124055781516123ec8882612393565b97506123f7836123aa565b9250506001810190506123d8565b5085935050505092915050565b5f60e083015f8301516124275f86018261224a565b50602083015161243a6020860182612289565b506040830151848203604086015261245282826122d0565b9150506060830151612467606086018261224a565b50608083015161247a608086018261224a565b5060a083015161248d60a086018261224a565b5060c083015184820360c08601526124a582826123b6565b9150508091505092915050565b5f6020820190508181035f8301526124ca8184612412565b905092915050565b6124db81612278565b81146124e5575f80fd5b50565b5f813590506124f6816124d2565b92915050565b5f602082840312156125115761251061214b565b5b5f61251e848285016124e8565b91505092915050565b5f81519050919050565b5f82825260208201905092915050565b5f819050602082019050919050565b5f61255b838361224a565b60208301905092915050565b5f602082019050919050565b5f61257d82612527565b6125878185612531565b935061259283612541565b805f5b838110156125c25781516125a98882612550565b97506125b483612567565b925050600181019050612595565b5085935050505092915050565b6125d881612153565b82525050565b5f82825260208201905092915050565b5f6125f882612298565b61260281856125de565b93506126128185602086016122b2565b61261b816122c0565b840191505092915050565b5f81519050919050565b5f82825260208201905092915050565b5f819050602082019050919050565b604082015f8201516126635f85018261224a565b5060208201516126766020850182612331565b50505050565b5f612687838361264f565b60408301905092915050565b5f602082019050919050565b5f6126a982612626565b6126b38185612630565b93506126be83612640565b805f5b838110156126ee5781516126d5888261267c565b97506126e083612693565b9250506001810190506126c1565b5085935050505092915050565b5f60a0820190508181035f8301526127138188612573565b905081810360208301526127278187612573565b905061273660408301866125cf565b818103606083015261274881856125ee565b9050818103608083015261275c818461269f565b90509695505050505050565b61277181612278565b82525050565b5f60c08201905061278a5f8301896125cf565b6127976020830188612768565b81810360408301526127a981876125ee565b90506127b860608301866125cf565b6127c560808301856125cf565b6127d260a08301846125cf565b979650505050505050565b5f80604083850312156127f3576127f261214b565b5b5f61280085828601612172565b925050602061281185828601612172565b9150509250929050565b5f80fd5b5f80fd5b7f4e487b71000000000000000000000000000000000000000000000000000000005f52604160045260245ffd5b612859826122c0565b810181811067ffffffffffffffff8211171561287857612877612823565b5b80604052505050565b5f61288a612142565b90506128968282612850565b919050565b5f67ffffffffffffffff8211156128b5576128b4612823565b5b6128be826122c0565b9050602081019050919050565b828183375f83830152505050565b5f6128eb6128e68461289b565b612881565b9050828152602081018484840111156129075761290661281f565b5b6129128482856128cb565b509392505050565b5f82601f83011261292e5761292d61281b565b5b813561293e8482602086016128d9565b91505092915050565b5f6020828403121561295c5761295b61214b565b5b5f82013567ffffffffffffffff8111156129795761297861214f565b5b6129858482850161291a565b91505092915050565b5f81519050919050565b5f82825260208201905092915050565b5f819050602082019050919050565b5f60e083015f8301516129cc5f86018261224a565b5060208301516129df6020860182612289565b50604083015184820360408601526129f782826122d0565b9150506060830151612a0c606086018261224a565b506080830151612a1f608086018261224a565b5060a0830151612a3260a086018261224a565b5060c083015184820360c0860152612a4a82826123b6565b9150508091505092915050565b5f612a6283836129b7565b905092915050565b5f602082019050919050565b5f612a808261298e565b612a8a8185612998565b935083602082028501612a9c856129a8565b805f5b85811015612ad75784840389528151612ab88582612a57565b9450612ac383612a6a565b925060208a01995050600181019050612a9f565b50829750879550505050505092915050565b5f6020820190508181035f830152612b018184612a76565b905092915050565b5f805f8060808587031215612b2157612b2061214b565b5b5f85013567ffffffffffffffff811115612b3e57612b3d61214f565b5b612b4a8782880161291a565b9450506020612b5b87828801612172565b9350506040612b6c87828801612172565b9250506060612b7d87828801612172565b91505092959194509250565b5f602082019050612b9c5f830184612768565b92915050565b7f47616d6520646f6573206e6f74206578697374000000000000000000000000005f82015250565b5f612bd66013836125de565b9150612be182612ba2565b602082019050919050565b5f6020820190508181035f830152612c0381612bca565b9050919050565b7f4e487b71000000000000000000000000000000000000000000000000000000005f52603260045260245ffd5b7f47616d652069732066756c6c00000000000000000000000000000000000000005f82015250565b5f612c6b600c836125de565b9150612c7682612c37565b602082019050919050565b5f6020820190508181035f830152612c9881612c5f565b9050919050565b7f4e487b71000000000000000000000000000000000000000000000000000000005f52601160045260245ffd5b5f612cd682612153565b9150612ce183612153565b9250828201905080821115612cf957612cf8612c9f565b5b92915050565b7f496e73756666696369656e74207061796d656e740000000000000000000000005f82015250565b5f612d336014836125de565b9150612d3e82612cff565b602082019050919050565b5f6020820190508181035f830152612d6081612d27565b9050919050565b5f612d7182612153565b9150612d7c83612153565b9250828203905081811115612d9457612d93612c9f565b5b92915050565b7f4e487b71000000000000000000000000000000000000000000000000000000005f52602260045260245ffd5b5f6002820490506001821680612dde57607f821691505b602082108103612df157612df0612d9a565b5b50919050565b5f612e0182612153565b9150612e0c83612153565b9250828202612e1a81612153565b91508282048414831517612e3157612e30612c9f565b5b5092915050565b7f4e487b71000000000000000000000000000000000000000000000000000000005f52601260045260245ffd5b5f612e6f82612153565b9150612e7a83612153565b925082612e8a57612e89612e38565b5b828204905092915050565b5f819050815f5260205f209050919050565b5f6020601f8301049050919050565b5f82821b905092915050565b5f60088302612ef17fffffffffffffffffffffffffffffffffffffffffffffffffffffffffffffffff82612eb6565b612efb8683612eb6565b95508019841693508086168417925050509392505050565b5f819050919050565b5f612f36612f31612f2c84612153565b612f13565b612153565b9050919050565b5f819050919050565b612f4f83612f1c565b612f63612f5b82612f3d565b848454612ec2565b825550505050565b5f90565b612f77612f6b565b612f82818484612f46565b505050565b5b81811015612fa557612f9a5f82612f6f565b600181019050612f88565b5050565b601f821115612fea57612fbb81612e95565b612fc484612ea7565b81016020851015612fd3578190505b612fe7612fdf85612ea7565b830182612f87565b50505b505050565b5f82821c905092915050565b5f61300a5f1984600802612fef565b1980831691505092915050565b5f6130228383612ffb565b9150826002028217905092915050565b61303b82612298565b67ffffffffffffffff81111561305457613053612823565b5b61305e8254612dc7565b613069828285612fa9565b5f60209050601f83116001811461309a575f8415613088578287015190505b6130928582613017565b8655506130f9565b601f1984166130a886612e95565b5f5b828110156130cf578489015182556001820191506020850194506020810190506130aa565b868310156130ec57848901516130e8601f891682612ffb565b8355505b6001600288020188555050505b50505050505056fea264697066735822122075c9c0abffa5a102a64e19a1d375241b1869fb57eaaee099e1f99f7a74459ff164736f6c634300081a0033",
  "immutableReferences": {},
  "source": "// SPDX-License-Identifier: MIT\r\npragma solidity ^0.8.0;\r\n\r\ncontract Organiser {\r\n    struct Player {\r\n        address playerAddress;\r\n        uint256 leaderboardScore;\r\n        bool bHasPlayTicket;\r\n        bool bHasStreamTicket;\r\n    }\r\n\r\n    struct GameData {\r\n        uint256 gameId;\r\n        address organiserAddress;\r\n        string Ipfs;\r\n        uint256 gameTicketPrice;\r\n        uint256 streamTicketPrice;\r\n        uint256 totalRevenue;\r\n        Player[] playersJoined;\r\n    }\r\n\r\n    struct profile {\r\n        uint256[] gamesJoined;\r\n        uint256[] gamesOrganised;\r\n        uint256 moneygained;\r\n        mapping(uint256 => bool) iscollected;\r\n        string ipfsdata;\r\n    }\r\n\r\n    address[] public organisers;\r\n    GameData[] public gamesList;\r\n    mapping(address => profile) ProfileData;\r\n\r\n    function UploadProfile(string memory _ipfsData) public {\r\n        ProfileData[msg.sender].ipfsdata = _ipfsData;\r\n    }\r\n\r\n    function UploadGames(\r\n        string memory _ipfs,\r\n        uint256 _gameTicketPrice,\r\n        uint256 _streamTicketPrice,\r\n        uint256 _prizePoolFromOwner\r\n    ) public payable {\r\n        require(msg.value >= _prizePoolFromOwner, \"Insufficient payment\");\r\n        if (msg.value > _prizePoolFromOwner) {\r\n            payable(msg.sender).transfer(msg.value - _prizePoolFromOwner);\r\n        }\r\n        uint256 newGameId = gamesList.length;\r\n\r\n        gamesList.push();\r\n        GameData storage newGame = gamesList[newGameId];\r\n        newGame.gameId = newGameId;\r\n        newGame.organiserAddress = msg.sender;\r\n        newGame.Ipfs = _ipfs;\r\n        newGame.gameTicketPrice = _gameTicketPrice;\r\n        newGame.streamTicketPrice = _streamTicketPrice;\r\n        newGame.totalRevenue = 0 + _prizePoolFromOwner;\r\n\r\n        ProfileData[msg.sender].gamesOrganised.push(newGameId);\r\n        ProfileData[msg.sender].iscollected[newGameId] = false;\r\n    }\r\n\r\n    function JoinGame(\r\n        uint256 _gameId,\r\n        bool _bHasGameTicket,\r\n        bool _bHasStreamTicket,\r\n        uint256 _maxNoPlayer\r\n    ) public payable {\r\n        if (_gameId >= gamesList.length) {\r\n            revert(\"Game does not exist\");\r\n        }\r\n        require(\r\n            gamesList[_gameId].playersJoined.length < _maxNoPlayer,\r\n            \"Game is full\"\r\n        );\r\n        uint256 totCost = 0;\r\n\r\n        if (_bHasGameTicket) {\r\n            totCost += gamesList[_gameId].gameTicketPrice;\r\n        }\r\n\r\n        if (_bHasStreamTicket) {\r\n            totCost += gamesList[_gameId].streamTicketPrice;\r\n        }\r\n\r\n        require(msg.value >= totCost, \"Insufficient payment\");\r\n\r\n        gamesList[_gameId].playersJoined.push(\r\n            Player({\r\n                playerAddress: msg.sender,\r\n                leaderboardScore: 0,\r\n                bHasStreamTicket: _bHasStreamTicket,\r\n                bHasPlayTicket: _bHasGameTicket\r\n            })\r\n        );\r\n\r\n        ProfileData[msg.sender].gamesJoined.push(_gameId);\r\n        ProfileData[msg.sender].iscollected[_gameId] = false;\r\n\r\n        if (msg.value > totCost) {\r\n            payable(msg.sender).transfer(msg.value - totCost);\r\n        }\r\n    }\r\n\r\n    function UpdateLeaderBoard(uint256 _gameid, uint256 score) public {\r\n        for (uint256 i = 0; i < gamesList[_gameid].playersJoined.length; i++) {\r\n            if (\r\n                gamesList[_gameid].playersJoined[i].playerAddress == msg.sender\r\n            ) {\r\n                gamesList[_gameid].playersJoined[i].leaderboardScore = score;\r\n            }\r\n        }\r\n    }\r\n\r\n    function GetReward(uint256 _gameid) public {\r\n        if (ProfileData[msg.sender].iscollected[_gameid]) return;\r\n\r\n        uint256 len = gamesList[_gameid].playersJoined.length;\r\n        uint256 totalPrizeMoney = gamesList[_gameid].totalRevenue;\r\n        if (msg.sender == gamesList[_gameid].organiserAddress) {\r\n            payable(msg.sender).transfer((15 * totalPrizeMoney) / 100);\r\n            ProfileData[msg.sender].moneygained += (15 * totalPrizeMoney) / 100;\r\n            ProfileData[msg.sender].iscollected[_gameid] = true;\r\n            return;\r\n        }\r\n        if (msg.sender == 0x885dF0Da95b731D9cE9f4f56AFE5762fd23E573C) {\r\n            payable(msg.sender).transfer((5 * totalPrizeMoney) / 100);\r\n            ProfileData[msg.sender].moneygained += (5 * totalPrizeMoney) / 100;\r\n            ProfileData[msg.sender].iscollected[_gameid] = true;\r\n            return;\r\n        }\r\n        uint256 MyScore = 0;\r\n        uint256 position = 1;\r\n        bool tiebraker = false;\r\n        for (uint256 i = 0; i < len; i++) {\r\n            if (\r\n                gamesList[_gameid].playersJoined[i].playerAddress == msg.sender\r\n            ) {\r\n                MyScore = gamesList[_gameid].playersJoined[i].leaderboardScore;\r\n            }\r\n        }\r\n        for (uint256 i = 0; i < len; i++) {\r\n            if (\r\n                gamesList[_gameid].playersJoined[i].playerAddress != msg.sender\r\n            ) {\r\n                if (\r\n                    gamesList[_gameid].playersJoined[i].leaderboardScore >\r\n                    MyScore\r\n                ) {\r\n                    position += 1;\r\n                } else if (\r\n                    gamesList[_gameid].playersJoined[i].leaderboardScore ==\r\n                    MyScore\r\n                ) {\r\n                    if (!tiebraker) {\r\n                        position += 1;\r\n                    }\r\n                }\r\n            } else {\r\n                tiebraker = true;\r\n            }\r\n        } // 5 15 30 20 15 15\r\n        if (position == 1) {\r\n            payable(msg.sender).transfer((30 * totalPrizeMoney) / 100);\r\n            ProfileData[msg.sender].moneygained += (30 * totalPrizeMoney) / 100;\r\n            ProfileData[msg.sender].iscollected[_gameid] = true;\r\n        } else if (position == 2) {\r\n            payable(msg.sender).transfer((20 * totalPrizeMoney) / 100);\r\n            ProfileData[msg.sender].moneygained += (20 * totalPrizeMoney) / 100;\r\n            ProfileData[msg.sender].iscollected[_gameid] = true;\r\n        } else if (position == 3) {\r\n            payable(msg.sender).transfer((15 * totalPrizeMoney) / 100);\r\n            ProfileData[msg.sender].moneygained += (15 * totalPrizeMoney) / 100;\r\n            ProfileData[msg.sender].iscollected[_gameid] = true;\r\n        } else {\r\n            // 4- 4 + 10/100 * len\r\n            uint256 newlen = (len * 10) / 100;\r\n            if (position >= 4 && position <= newlen + 3) {\r\n                payable(msg.sender).transfer(\r\n                    (15 * totalPrizeMoney) / (100 * newlen)\r\n                );\r\n                ProfileData[msg.sender].moneygained +=\r\n                    (15 * totalPrizeMoney) /\r\n                    (100 * newlen);\r\n                ProfileData[msg.sender].iscollected[_gameid] = true;\r\n            }\r\n        }\r\n    }\r\n\r\n    function getGamesList() public view returns (GameData[] memory) {\r\n        return gamesList;\r\n    }\r\n\r\n    function getGameById(uint256 _gameId)\r\n        public\r\n        view\r\n        returns (GameData memory)\r\n    {\r\n        require(_gameId < gamesList.length, \"Game does not exist\");\r\n        return gamesList[_gameId];\r\n    }\r\n\r\n    struct GameStatus {\r\n        uint256 gameId;\r\n        bool isCollected;\r\n    }\r\n\r\n    function getGamesStatus(address user)\r\n        public\r\n        view\r\n        returns (\r\n            uint256[] memory,\r\n            uint256[] memory,\r\n            uint256,\r\n            string memory,\r\n            GameStatus[] memory\r\n        )\r\n    {\r\n        uint256[] memory games = ProfileData[user].gamesJoined;\r\n        uint256[] memory games2 = ProfileData[user].gamesOrganised;\r\n        GameStatus[] memory gameStatuses = new GameStatus[](\r\n            games.length + games2.length\r\n        );\r\n\r\n        for (uint256 i = 0; i < games.length; i++) {\r\n            gameStatuses[i] = GameStatus({\r\n                gameId: games[i],\r\n                isCollected: ProfileData[user].iscollected[games[i]]\r\n            });\r\n        }\r\n        for (uint256 i = games.length; i < games.length + games2.length; i++) {\r\n            gameStatuses[i] = GameStatus({\r\n                gameId: games2[i],\r\n                isCollected: ProfileData[user].iscollected[games2[i]]\r\n            });\r\n        }\r\n\r\n        return (\r\n            ProfileData[user].gamesJoined,\r\n            ProfileData[user].gamesOrganised,\r\n            ProfileData[user].moneygained,\r\n            ProfileData[user].ipfsdata,\r\n            gameStatuses\r\n        );\r\n    }\r\n}\r\n",
  "sourcePath": "E:\\website\\ThetaEdge\\contracts\\Organiser.sol",
  "compiler": {
    "name": "solc",
    "version": "0.8.26+commit.8a97fa7a.Emscripten.clang"
  },
  "schemaVersion": "3.4.16",
  "updatedAt": "2024-07-19T17:28:48.070Z",
  "devdoc": {
    "kind": "dev",
    "methods": {},
    "version": 1
  },
  "userdoc": {
    "kind": "user",
    "methods": {},
    "version": 1
  }
}