{
  "contractName": "Organiser",
  "abi": [
    {
      "inputs": [
        {
          "internalType": "uint256",
          "name": "",
          "type": "uint256"
        }
      ],
      "name": "gamesList",
      "outputs": [
        {
          "internalType": "uint256",
          "name": "gameId",
          "type": "uint256"
        },
        {
          "internalType": "address",
          "name": "organiserAddress",
          "type": "address"
        },
        {
          "internalType": "string",
          "name": "Ipfs",
          "type": "string"
        },
        {
          "internalType": "uint256",
          "name": "gameTicketPrice",
          "type": "uint256"
        },
        {
          "internalType": "uint256",
          "name": "streamTicketPrice",
          "type": "uint256"
        },
        {
          "internalType": "uint256",
          "name": "totalRevenue",
          "type": "uint256"
        }
      ],
      "stateMutability": "view",
      "type": "function"
    },
    {
      "inputs": [
        {
          "internalType": "uint256",
          "name": "",
          "type": "uint256"
        }
      ],
      "name": "organisers",
      "outputs": [
        {
          "internalType": "address",
          "name": "",
          "type": "address"
        }
      ],
      "stateMutability": "view",
      "type": "function"
    },
    {
      "inputs": [
        {
          "internalType": "string",
          "name": "_ipfsData",
          "type": "string"
        }
      ],
      "name": "UploadProfile",
      "outputs": [],
      "stateMutability": "nonpayable",
      "type": "function"
    },
    {
      "inputs": [],
      "name": "GetProfileIpfs",
      "outputs": [
        {
          "internalType": "string",
          "name": "",
          "type": "string"
        }
      ],
      "stateMutability": "view",
      "type": "function"
    },
    {
      "inputs": [
        {
          "internalType": "string",
          "name": "_ipfs",
          "type": "string"
        },
        {
          "internalType": "uint256",
          "name": "_gameTicketPrice",
          "type": "uint256"
        },
        {
          "internalType": "uint256",
          "name": "_streamTicketPrice",
          "type": "uint256"
        },
        {
          "internalType": "uint256",
          "name": "_prizePoolFromOwner",
          "type": "uint256"
        }
      ],
      "name": "UploadGames",
      "outputs": [],
      "stateMutability": "payable",
      "type": "function"
    },
    {
      "inputs": [
        {
          "internalType": "uint256",
          "name": "_gameId",
          "type": "uint256"
        },
        {
          "internalType": "bool",
          "name": "_bHasGameTicket",
          "type": "bool"
        },
        {
          "internalType": "bool",
          "name": "_bHasStreamTicket",
          "type": "bool"
        },
        {
          "internalType": "uint256",
          "name": "_maxNoPlayer",
          "type": "uint256"
        }
      ],
      "name": "JoinGame",
      "outputs": [],
      "stateMutability": "payable",
      "type": "function"
    },
    {
      "inputs": [
        {
          "internalType": "uint256",
          "name": "_gameid",
          "type": "uint256"
        },
        {
          "internalType": "uint256",
          "name": "score",
          "type": "uint256"
        }
      ],
      "name": "UpdateLeaderBoard",
      "outputs": [],
      "stateMutability": "nonpayable",
      "type": "function"
    },
    {
      "inputs": [
        {
          "internalType": "uint256",
          "name": "_gameid",
          "type": "uint256"
        }
      ],
      "name": "GetReward",
      "outputs": [],
      "stateMutability": "nonpayable",
      "type": "function"
    },
    {
      "inputs": [],
      "name": "getGamesList",
      "outputs": [
        {
          "components": [
            {
              "internalType": "uint256",
              "name": "gameId",
              "type": "uint256"
            },
            {
              "internalType": "address",
              "name": "organiserAddress",
              "type": "address"
            },
            {
              "internalType": "string",
              "name": "Ipfs",
              "type": "string"
            },
            {
              "internalType": "uint256",
              "name": "gameTicketPrice",
              "type": "uint256"
            },
            {
              "internalType": "uint256",
              "name": "streamTicketPrice",
              "type": "uint256"
            },
            {
              "internalType": "uint256",
              "name": "totalRevenue",
              "type": "uint256"
            },
            {
              "components": [
                {
                  "internalType": "address",
                  "name": "playerAddress",
                  "type": "address"
                },
                {
                  "internalType": "uint256",
                  "name": "leaderboardScore",
                  "type": "uint256"
                },
                {
                  "internalType": "bool",
                  "name": "bHasPlayTicket",
                  "type": "bool"
                },
                {
                  "internalType": "bool",
                  "name": "bHasStreamTicket",
                  "type": "bool"
                }
              ],
              "internalType": "struct Organiser.Player[]",
              "name": "playersJoined",
              "type": "tuple[]"
            }
          ],
          "internalType": "struct Organiser.GameData[]",
          "name": "",
          "type": "tuple[]"
        }
      ],
      "stateMutability": "view",
      "type": "function"
    },
    {
      "inputs": [
        {
          "internalType": "uint256",
          "name": "_gameId",
          "type": "uint256"
        }
      ],
      "name": "getGameById",
      "outputs": [
        {
          "components": [
            {
              "internalType": "uint256",
              "name": "gameId",
              "type": "uint256"
            },
            {
              "internalType": "address",
              "name": "organiserAddress",
              "type": "address"
            },
            {
              "internalType": "string",
              "name": "Ipfs",
              "type": "string"
            },
            {
              "internalType": "uint256",
              "name": "gameTicketPrice",
              "type": "uint256"
            },
            {
              "internalType": "uint256",
              "name": "streamTicketPrice",
              "type": "uint256"
            },
            {
              "internalType": "uint256",
              "name": "totalRevenue",
              "type": "uint256"
            },
            {
              "components": [
                {
                  "internalType": "address",
                  "name": "playerAddress",
                  "type": "address"
                },
                {
                  "internalType": "uint256",
                  "name": "leaderboardScore",
                  "type": "uint256"
                },
                {
                  "internalType": "bool",
                  "name": "bHasPlayTicket",
                  "type": "bool"
                },
                {
                  "internalType": "bool",
                  "name": "bHasStreamTicket",
                  "type": "bool"
                }
              ],
              "internalType": "struct Organiser.Player[]",
              "name": "playersJoined",
              "type": "tuple[]"
            }
          ],
          "internalType": "struct Organiser.GameData",
          "name": "",
          "type": "tuple"
        }
      ],
      "stateMutability": "view",
      "type": "function"
    },
    {
      "inputs": [
        {
          "internalType": "address",
          "name": "user",
          "type": "address"
        }
      ],
      "name": "getGamesStatus",
      "outputs": [
        {
          "internalType": "uint256[]",
          "name": "",
          "type": "uint256[]"
        },
        {
          "internalType": "uint256[]",
          "name": "",
          "type": "uint256[]"
        },
        {
          "internalType": "uint256",
          "name": "",
          "type": "uint256"
        },
        {
          "internalType": "string",
          "name": "",
          "type": "string"
        },
        {
          "components": [
            {
              "internalType": "uint256",
              "name": "gameId",
              "type": "uint256"
            },
            {
              "internalType": "bool",
              "name": "isCollected",
              "type": "bool"
            }
          ],
          "internalType": "struct Organiser.GameStatus[]",
          "name": "",
          "type": "tuple[]"
        }
      ],
      "stateMutability": "view",
      "type": "function"
    }
  ],
  "bytecode": "0x6080604052348015600e575f80fd5b5061325a8061001c5f395ff3fe60806040526004361061009b575f3560e01c80635054c0a3116100635780635054c0a3146101895780637b8f4222146101ca57806385b615b8146101f2578063bed16fa61461021a578063dd795b0514610244578063f6937145146102605761009b565b8063073aa0031461009f57806309660513146100bb57806320086f90146100f757806335de163c14610121578063411b783b14610149575b5f80fd5b6100b960048036038101906100b491906122be565b61029c565b005b3480156100c6575f80fd5b506100e160048036038101906100dc9190612322565b61063a565b6040516100ee91906125b5565b60405180910390f35b348015610102575f80fd5b5061010b6108b6565b604051610118919061261d565b60405180910390f35b34801561012c575f80fd5b5061014760048036038101906101429190612322565b610984565b005b348015610154575f80fd5b5061016f600480360381019061016a9190612667565b611523565b60405161018095949392919061281e565b60405180910390f35b348015610194575f80fd5b506101af60048036038101906101aa9190612322565b611ab8565b6040516101c19695949392919061289a565b60405180910390f35b3480156101d5575f80fd5b506101f060048036038101906101eb9190612900565b611ba4565b005b3480156101fd575f80fd5b5061021860048036038101906102139190612a6a565b611cc5565b005b348015610225575f80fd5b5061022e611d16565b60405161023b9190612c0c565b60405180910390f35b61025e60048036038101906102599190612c2c565b611f6d565b005b34801561026b575f80fd5b5061028660048036038101906102819190612322565b6121a3565b6040516102939190612cac565b60405180910390f35b60018054905084106102e3576040517f08c379a00000000000000000000000000000000000000000000000000000000081526004016102da90612d0f565b60405180910390fd5b80600185815481106102f8576102f7612d2d565b5b905f5260205f209060070201600601805490501061034b576040517f08c379a000000000000000000000000000000000000000000000000000000000815260040161034290612da4565b60405180910390fd5b5f8315610384576001858154811061036657610365612d2d565b5b905f5260205f20906007020160030154816103819190612def565b90505b82156103bc576001858154811061039e5761039d612d2d565b5b905f5260205f20906007020160040154816103b99190612def565b90505b803410156103ff576040517f08c379a00000000000000000000000000000000000000000000000000000000081526004016103f690612e6c565b60405180910390fd5b6001858154811061041357610412612d2d565b5b905f5260205f20906007020160060160405180608001604052803373ffffffffffffffffffffffffffffffffffffffff1681526020015f81526020018615158152602001851515815250908060018154018082558091505060019003905f5260205f2090600302015f909190919091505f820151815f015f6101000a81548173ffffffffffffffffffffffffffffffffffffffff021916908373ffffffffffffffffffffffffffffffffffffffff160217905550602082015181600101556040820151816002015f6101000a81548160ff02191690831515021790555060608201518160020160016101000a81548160ff021916908315150217905550505060025f3373ffffffffffffffffffffffffffffffffffffffff1673ffffffffffffffffffffffffffffffffffffffff1681526020019081526020015f205f0185908060018154018082558091505060019003905f5260205f20015f90919091909150555f60025f3373ffffffffffffffffffffffffffffffffffffffff1673ffffffffffffffffffffffffffffffffffffffff1681526020019081526020015f206003015f8781526020019081526020015f205f6101000a81548160ff02191690831515021790555080341115610633573373ffffffffffffffffffffffffffffffffffffffff166108fc82346106099190612e8a565b90811502906040515f60405180830381858888f19350505050158015610631573d5f803e3d5ffd5b505b5050505050565b6106426121dd565b6001805490508210610689576040517f08c379a000000000000000000000000000000000000000000000000000000000815260040161068090612d0f565b60405180910390fd5b6001828154811061069d5761069c612d2d565b5b905f5260205f2090600702016040518060e00160405290815f8201548152602001600182015f9054906101000a900473ffffffffffffffffffffffffffffffffffffffff1673ffffffffffffffffffffffffffffffffffffffff1673ffffffffffffffffffffffffffffffffffffffff16815260200160028201805461072290612eea565b80601f016020809104026020016040519081016040528092919081815260200182805461074e90612eea565b80156107995780601f1061077057610100808354040283529160200191610799565b820191905f5260205f20905b81548152906001019060200180831161077c57829003601f168201915b5050505050815260200160038201548152602001600482015481526020016005820154815260200160068201805480602002602001604051908101604052809291908181526020015f905b828210156108a7578382905f5260205f2090600302016040518060800160405290815f82015f9054906101000a900473ffffffffffffffffffffffffffffffffffffffff1673ffffffffffffffffffffffffffffffffffffffff1673ffffffffffffffffffffffffffffffffffffffff16815260200160018201548152602001600282015f9054906101000a900460ff161515151581526020016002820160019054906101000a900460ff161515151581525050815260200190600101906107e4565b50505050815250509050919050565b606060025f3373ffffffffffffffffffffffffffffffffffffffff1673ffffffffffffffffffffffffffffffffffffffff1681526020019081526020015f20600401805461090390612eea565b80601f016020809104026020016040519081016040528092919081815260200182805461092f90612eea565b801561097a5780601f106109515761010080835404028352916020019161097a565b820191905f5260205f20905b81548152906001019060200180831161095d57829003601f168201915b5050505050905090565b60025f3373ffffffffffffffffffffffffffffffffffffffff1673ffffffffffffffffffffffffffffffffffffffff1681526020019081526020015f206003015f8281526020019081526020015f205f9054906101000a900460ff16611520575f600182815481106109f9576109f8612d2d565b5b905f5260205f2090600702016006018054905090505f60018381548110610a2357610a22612d2d565b5b905f5260205f20906007020160050154905060018381548110610a4957610a48612d2d565b5b905f5260205f2090600702016001015f9054906101000a900473ffffffffffffffffffffffffffffffffffffffff1673ffffffffffffffffffffffffffffffffffffffff163373ffffffffffffffffffffffffffffffffffffffff1603610be2573373ffffffffffffffffffffffffffffffffffffffff166108fc606483600f610ad39190612f1a565b610add9190612f88565b90811502906040515f60405180830381858888f19350505050158015610b05573d5f803e3d5ffd5b50606481600f610b159190612f1a565b610b1f9190612f88565b60025f3373ffffffffffffffffffffffffffffffffffffffff1673ffffffffffffffffffffffffffffffffffffffff1681526020019081526020015f206002015f828254610b6d9190612def565b92505081905550600160025f3373ffffffffffffffffffffffffffffffffffffffff1673ffffffffffffffffffffffffffffffffffffffff1681526020019081526020015f206003015f8581526020019081526020015f205f6101000a81548160ff0219169083151502179055505050611520565b73885df0da95b731d9ce9f4f56afe5762fd23e573c73ffffffffffffffffffffffffffffffffffffffff163373ffffffffffffffffffffffffffffffffffffffff1603610d61573373ffffffffffffffffffffffffffffffffffffffff166108fc6064836005610c529190612f1a565b610c5c9190612f88565b90811502906040515f60405180830381858888f19350505050158015610c84573d5f803e3d5ffd5b506064816005610c949190612f1a565b610c9e9190612f88565b60025f3373ffffffffffffffffffffffffffffffffffffffff1673ffffffffffffffffffffffffffffffffffffffff1681526020019081526020015f206002015f828254610cec9190612def565b92505081905550600160025f3373ffffffffffffffffffffffffffffffffffffffff1673ffffffffffffffffffffffffffffffffffffffff1681526020019081526020015f206003015f8581526020019081526020015f205f6101000a81548160ff0219169083151502179055505050611520565b5f80600190505f805b85811015610e5c573373ffffffffffffffffffffffffffffffffffffffff1660018881548110610d9d57610d9c612d2d565b5b905f5260205f2090600702016006018281548110610dbe57610dbd612d2d565b5b905f5260205f2090600302015f015f9054906101000a900473ffffffffffffffffffffffffffffffffffffffff1673ffffffffffffffffffffffffffffffffffffffff1603610e4f5760018781548110610e1b57610e1a612d2d565b5b905f5260205f2090600702016006018181548110610e3c57610e3b612d2d565b5b905f5260205f2090600302016001015493505b8080600101915050610d6a565b505f5b85811015610fd5573373ffffffffffffffffffffffffffffffffffffffff1660018881548110610e9257610e91612d2d565b5b905f5260205f2090600702016006018281548110610eb357610eb2612d2d565b5b905f5260205f2090600302015f015f9054906101000a900473ffffffffffffffffffffffffffffffffffffffff1673ffffffffffffffffffffffffffffffffffffffff1614610fc3578360018881548110610f1157610f10612d2d565b5b905f5260205f2090600702016006018281548110610f3257610f31612d2d565b5b905f5260205f209060030201600101541115610f5c57600183610f559190612def565b9250610fbe565b8360018881548110610f7157610f70612d2d565b5b905f5260205f2090600702016006018281548110610f9257610f91612d2d565b5b905f5260205f2090600302016001015403610fbd5781610fbc57600183610fb99190612def565b92505b5b5b610fc8565b600191505b8080600101915050610e5f565b5060018203611114573373ffffffffffffffffffffffffffffffffffffffff166108fc606486601e6110079190612f1a565b6110119190612f88565b90811502906040515f60405180830381858888f19350505050158015611039573d5f803e3d5ffd5b50606484601e6110499190612f1a565b6110539190612f88565b60025f3373ffffffffffffffffffffffffffffffffffffffff1673ffffffffffffffffffffffffffffffffffffffff1681526020019081526020015f206002015f8282546110a19190612def565b92505081905550600160025f3373ffffffffffffffffffffffffffffffffffffffff1673ffffffffffffffffffffffffffffffffffffffff1681526020019081526020015f206003015f8881526020019081526020015f205f6101000a81548160ff02191690831515021790555061151a565b60028203611252573373ffffffffffffffffffffffffffffffffffffffff166108fc60648660146111459190612f1a565b61114f9190612f88565b90811502906040515f60405180830381858888f19350505050158015611177573d5f803e3d5ffd5b5060648460146111879190612f1a565b6111919190612f88565b60025f3373ffffffffffffffffffffffffffffffffffffffff1673ffffffffffffffffffffffffffffffffffffffff1681526020019081526020015f206002015f8282546111df9190612def565b92505081905550600160025f3373ffffffffffffffffffffffffffffffffffffffff1673ffffffffffffffffffffffffffffffffffffffff1681526020019081526020015f206003015f8881526020019081526020015f205f6101000a81548160ff021916908315150217905550611519565b60038203611390573373ffffffffffffffffffffffffffffffffffffffff166108fc606486600f6112839190612f1a565b61128d9190612f88565b90811502906040515f60405180830381858888f193505050501580156112b5573d5f803e3d5ffd5b50606484600f6112c59190612f1a565b6112cf9190612f88565b60025f3373ffffffffffffffffffffffffffffffffffffffff1673ffffffffffffffffffffffffffffffffffffffff1681526020019081526020015f206002015f82825461131d9190612def565b92505081905550600160025f3373ffffffffffffffffffffffffffffffffffffffff1673ffffffffffffffffffffffffffffffffffffffff1681526020019081526020015f206003015f8881526020019081526020015f205f6101000a81548160ff021916908315150217905550611518565b5f6064600a876113a09190612f1a565b6113aa9190612f88565b9050600483101580156113c957506003816113c59190612def565b8311155b15611516573373ffffffffffffffffffffffffffffffffffffffff166108fc8260646113f59190612f1a565b87600f6114029190612f1a565b61140c9190612f88565b90811502906040515f60405180830381858888f19350505050158015611434573d5f803e3d5ffd5b508060646114429190612f1a565b85600f61144f9190612f1a565b6114599190612f88565b60025f3373ffffffffffffffffffffffffffffffffffffffff1673ffffffffffffffffffffffffffffffffffffffff1681526020019081526020015f206002015f8282546114a79190612def565b92505081905550600160025f3373ffffffffffffffffffffffffffffffffffffffff1673ffffffffffffffffffffffffffffffffffffffff1681526020019081526020015f206003015f8981526020019081526020015f205f6101000a81548160ff0219169083151502179055505b505b5b5b50505050505b50565b6060805f6060805f60025f8873ffffffffffffffffffffffffffffffffffffffff1673ffffffffffffffffffffffffffffffffffffffff1681526020019081526020015f205f018054806020026020016040519081016040528092919081815260200182805480156115b257602002820191905f5260205f20905b81548152602001906001019080831161159e575b505050505090505f60025f8973ffffffffffffffffffffffffffffffffffffffff1673ffffffffffffffffffffffffffffffffffffffff1681526020019081526020015f2060010180548060200260200160405190810160405280929190818152602001828054801561164257602002820191905f5260205f20905b81548152602001906001019080831161162e575b505050505090505f815183516116589190612def565b67ffffffffffffffff81111561167157611670612946565b5b6040519080825280602002602001820160405280156116aa57816020015b61169761222b565b81526020019060019003908161168f5790505b5090505f5b83518110156117895760405180604001604052808583815181106116d6576116d5612d2d565b5b6020026020010151815260200160025f8d73ffffffffffffffffffffffffffffffffffffffff1673ffffffffffffffffffffffffffffffffffffffff1681526020019081526020015f206003015f87858151811061173757611736612d2d565b5b602002602001015181526020019081526020015f205f9054906101000a900460ff16151581525082828151811061177157611770612d2d565b5b602002602001018190525080806001019150506116af565b505f835190505b8251845161179e9190612def565b8110156118765760405180604001604052808483815181106117c3576117c2612d2d565b5b6020026020010151815260200160025f8d73ffffffffffffffffffffffffffffffffffffffff1673ffffffffffffffffffffffffffffffffffffffff1681526020019081526020015f206003015f86858151811061182457611823612d2d565b5b602002602001015181526020019081526020015f205f9054906101000a900460ff16151581525082828151811061185e5761185d612d2d565b5b60200260200101819052508080600101915050611790565b5060025f8a73ffffffffffffffffffffffffffffffffffffffff1673ffffffffffffffffffffffffffffffffffffffff1681526020019081526020015f205f0160025f8b73ffffffffffffffffffffffffffffffffffffffff1673ffffffffffffffffffffffffffffffffffffffff1681526020019081526020015f2060010160025f8c73ffffffffffffffffffffffffffffffffffffffff1673ffffffffffffffffffffffffffffffffffffffff1681526020019081526020015f206002015460025f8d73ffffffffffffffffffffffffffffffffffffffff1673ffffffffffffffffffffffffffffffffffffffff1681526020019081526020015f2060040184848054806020026020016040519081016040528092919081815260200182805480156119c157602002820191905f5260205f20905b8154815260200190600101908083116119ad575b5050505050945083805480602002602001604051908101604052809291908181526020018280548015611a1157602002820191905f5260205f20905b8154815260200190600101908083116119fd575b50505050509350818054611a2490612eea565b80601f0160208091040260200160405190810160405280929190818152602001828054611a5090612eea565b8015611a9b5780601f10611a7257610100808354040283529160200191611a9b565b820191905f5260205f20905b815481529060010190602001808311611a7e57829003601f168201915b505050505091509750975097509750975050505091939590929450565b60018181548110611ac7575f80fd5b905f5260205f2090600702015f91509050805f015490806001015f9054906101000a900473ffffffffffffffffffffffffffffffffffffffff1690806002018054611b1190612eea565b80601f0160208091040260200160405190810160405280929190818152602001828054611b3d90612eea565b8015611b885780601f10611b5f57610100808354040283529160200191611b88565b820191905f5260205f20905b815481529060010190602001808311611b6b57829003601f168201915b5050505050908060030154908060040154908060050154905086565b5f5b60018381548110611bba57611bb9612d2d565b5b905f5260205f20906007020160060180549050811015611cc0573373ffffffffffffffffffffffffffffffffffffffff1660018481548110611bff57611bfe612d2d565b5b905f5260205f2090600702016006018281548110611c2057611c1f612d2d565b5b905f5260205f2090600302015f015f9054906101000a900473ffffffffffffffffffffffffffffffffffffffff1673ffffffffffffffffffffffffffffffffffffffff1603611cb3578160018481548110611c7e57611c7d612d2d565b5b905f5260205f2090600702016006018281548110611c9f57611c9e612d2d565b5b905f5260205f209060030201600101819055505b8080600101915050611ba6565b505050565b8060025f3373ffffffffffffffffffffffffffffffffffffffff1673ffffffffffffffffffffffffffffffffffffffff1681526020019081526020015f206004019081611d129190613155565b5050565b60606001805480602002602001604051908101604052809291908181526020015f905b82821015611f64578382905f5260205f2090600702016040518060e00160405290815f8201548152602001600182015f9054906101000a900473ffffffffffffffffffffffffffffffffffffffff1673ffffffffffffffffffffffffffffffffffffffff1673ffffffffffffffffffffffffffffffffffffffff168152602001600282018054611dc890612eea565b80601f0160208091040260200160405190810160405280929190818152602001828054611df490612eea565b8015611e3f5780601f10611e1657610100808354040283529160200191611e3f565b820191905f5260205f20905b815481529060010190602001808311611e2257829003601f168201915b5050505050815260200160038201548152602001600482015481526020016005820154815260200160068201805480602002602001604051908101604052809291908181526020015f905b82821015611f4d578382905f5260205f2090600302016040518060800160405290815f82015f9054906101000a900473ffffffffffffffffffffffffffffffffffffffff1673ffffffffffffffffffffffffffffffffffffffff1673ffffffffffffffffffffffffffffffffffffffff16815260200160018201548152602001600282015f9054906101000a900460ff161515151581526020016002820160019054906101000a900460ff16151515158152505081526020019060010190611e8a565b505050508152505081526020019060010190611d39565b50505050905090565b80341015611fb0576040517f08c379a0000000000000000000000000000000000000000000000000000000008152600401611fa790612e6c565b60405180910390fd5b80341115612008573373ffffffffffffffffffffffffffffffffffffffff166108fc8234611fde9190612e8a565b90811502906040515f60405180830381858888f19350505050158015612006573d5f803e3d5ffd5b505b5f60018054905090506001808160018154018082558091505003905f5260205f209050505f6001828154811061204157612040612d2d565b5b905f5260205f209060070201905081815f018190555033816001015f6101000a81548173ffffffffffffffffffffffffffffffffffffffff021916908373ffffffffffffffffffffffffffffffffffffffff160217905550858160020190816120aa9190613155565b50848160030181905550838160040181905550825f6120c99190612def565b816005018190555060025f3373ffffffffffffffffffffffffffffffffffffffff1673ffffffffffffffffffffffffffffffffffffffff1681526020019081526020015f2060010182908060018154018082558091505060019003905f5260205f20015f90919091909150555f60025f3373ffffffffffffffffffffffffffffffffffffffff1673ffffffffffffffffffffffffffffffffffffffff1681526020019081526020015f206003015f8481526020019081526020015f205f6101000a81548160ff021916908315150217905550505050505050565b5f81815481106121b1575f80fd5b905f5260205f20015f915054906101000a900473ffffffffffffffffffffffffffffffffffffffff1681565b6040518060e001604052805f81526020015f73ffffffffffffffffffffffffffffffffffffffff168152602001606081526020015f81526020015f81526020015f8152602001606081525090565b60405180604001604052805f81526020015f151581525090565b5f604051905090565b5f80fd5b5f80fd5b5f819050919050565b61226881612256565b8114612272575f80fd5b50565b5f813590506122838161225f565b92915050565b5f8115159050919050565b61229d81612289565b81146122a7575f80fd5b50565b5f813590506122b881612294565b92915050565b5f805f80608085870312156122d6576122d561224e565b5b5f6122e387828801612275565b94505060206122f4878288016122aa565b9350506040612305878288016122aa565b925050606061231687828801612275565b91505092959194509250565b5f602082840312156123375761233661224e565b5b5f61234484828501612275565b91505092915050565b61235681612256565b82525050565b5f73ffffffffffffffffffffffffffffffffffffffff82169050919050565b5f6123858261235c565b9050919050565b6123958161237b565b82525050565b5f81519050919050565b5f82825260208201905092915050565b8281835e5f83830152505050565b5f601f19601f8301169050919050565b5f6123dd8261239b565b6123e781856123a5565b93506123f78185602086016123b5565b612400816123c3565b840191505092915050565b5f81519050919050565b5f82825260208201905092915050565b5f819050602082019050919050565b61243d81612289565b82525050565b608082015f8201516124575f85018261238c565b50602082015161246a602085018261234d565b50604082015161247d6040850182612434565b5060608201516124906060850182612434565b50505050565b5f6124a18383612443565b60808301905092915050565b5f602082019050919050565b5f6124c38261240b565b6124cd8185612415565b93506124d883612425565b805f5b838110156125085781516124ef8882612496565b97506124fa836124ad565b9250506001810190506124db565b5085935050505092915050565b5f60e083015f83015161252a5f86018261234d565b50602083015161253d602086018261238c565b506040830151848203604086015261255582826123d3565b915050606083015161256a606086018261234d565b50608083015161257d608086018261234d565b5060a083015161259060a086018261234d565b5060c083015184820360c08601526125a882826124b9565b9150508091505092915050565b5f6020820190508181035f8301526125cd8184612515565b905092915050565b5f82825260208201905092915050565b5f6125ef8261239b565b6125f981856125d5565b93506126098185602086016123b5565b612612816123c3565b840191505092915050565b5f6020820190508181035f83015261263581846125e5565b905092915050565b6126468161237b565b8114612650575f80fd5b50565b5f813590506126618161263d565b92915050565b5f6020828403121561267c5761267b61224e565b5b5f61268984828501612653565b91505092915050565b5f81519050919050565b5f82825260208201905092915050565b5f819050602082019050919050565b5f6126c6838361234d565b60208301905092915050565b5f602082019050919050565b5f6126e882612692565b6126f2818561269c565b93506126fd836126ac565b805f5b8381101561272d57815161271488826126bb565b975061271f836126d2565b925050600181019050612700565b5085935050505092915050565b61274381612256565b82525050565b5f81519050919050565b5f82825260208201905092915050565b5f819050602082019050919050565b604082015f8201516127865f85018261234d565b5060208201516127996020850182612434565b50505050565b5f6127aa8383612772565b60408301905092915050565b5f602082019050919050565b5f6127cc82612749565b6127d68185612753565b93506127e183612763565b805f5b838110156128115781516127f8888261279f565b9750612803836127b6565b9250506001810190506127e4565b5085935050505092915050565b5f60a0820190508181035f83015261283681886126de565b9050818103602083015261284a81876126de565b9050612859604083018661273a565b818103606083015261286b81856125e5565b9050818103608083015261287f81846127c2565b90509695505050505050565b6128948161237b565b82525050565b5f60c0820190506128ad5f83018961273a565b6128ba602083018861288b565b81810360408301526128cc81876125e5565b90506128db606083018661273a565b6128e8608083018561273a565b6128f560a083018461273a565b979650505050505050565b5f80604083850312156129165761291561224e565b5b5f61292385828601612275565b925050602061293485828601612275565b9150509250929050565b5f80fd5b5f80fd5b7f4e487b71000000000000000000000000000000000000000000000000000000005f52604160045260245ffd5b61297c826123c3565b810181811067ffffffffffffffff8211171561299b5761299a612946565b5b80604052505050565b5f6129ad612245565b90506129b98282612973565b919050565b5f67ffffffffffffffff8211156129d8576129d7612946565b5b6129e1826123c3565b9050602081019050919050565b828183375f83830152505050565b5f612a0e612a09846129be565b6129a4565b905082815260208101848484011115612a2a57612a29612942565b5b612a358482856129ee565b509392505050565b5f82601f830112612a5157612a5061293e565b5b8135612a618482602086016129fc565b91505092915050565b5f60208284031215612a7f57612a7e61224e565b5b5f82013567ffffffffffffffff811115612a9c57612a9b612252565b5b612aa884828501612a3d565b91505092915050565b5f81519050919050565b5f82825260208201905092915050565b5f819050602082019050919050565b5f60e083015f830151612aef5f86018261234d565b506020830151612b02602086018261238c565b5060408301518482036040860152612b1a82826123d3565b9150506060830151612b2f606086018261234d565b506080830151612b42608086018261234d565b5060a0830151612b5560a086018261234d565b5060c083015184820360c0860152612b6d82826124b9565b9150508091505092915050565b5f612b858383612ada565b905092915050565b5f602082019050919050565b5f612ba382612ab1565b612bad8185612abb565b935083602082028501612bbf85612acb565b805f5b85811015612bfa5784840389528151612bdb8582612b7a565b9450612be683612b8d565b925060208a01995050600181019050612bc2565b50829750879550505050505092915050565b5f6020820190508181035f830152612c248184612b99565b905092915050565b5f805f8060808587031215612c4457612c4361224e565b5b5f85013567ffffffffffffffff811115612c6157612c60612252565b5b612c6d87828801612a3d565b9450506020612c7e87828801612275565b9350506040612c8f87828801612275565b9250506060612ca087828801612275565b91505092959194509250565b5f602082019050612cbf5f83018461288b565b92915050565b7f47616d6520646f6573206e6f74206578697374000000000000000000000000005f82015250565b5f612cf96013836125d5565b9150612d0482612cc5565b602082019050919050565b5f6020820190508181035f830152612d2681612ced565b9050919050565b7f4e487b71000000000000000000000000000000000000000000000000000000005f52603260045260245ffd5b7f47616d652069732066756c6c00000000000000000000000000000000000000005f82015250565b5f612d8e600c836125d5565b9150612d9982612d5a565b602082019050919050565b5f6020820190508181035f830152612dbb81612d82565b9050919050565b7f4e487b71000000000000000000000000000000000000000000000000000000005f52601160045260245ffd5b5f612df982612256565b9150612e0483612256565b9250828201905080821115612e1c57612e1b612dc2565b5b92915050565b7f496e73756666696369656e74207061796d656e740000000000000000000000005f82015250565b5f612e566014836125d5565b9150612e6182612e22565b602082019050919050565b5f6020820190508181035f830152612e8381612e4a565b9050919050565b5f612e9482612256565b9150612e9f83612256565b9250828203905081811115612eb757612eb6612dc2565b5b92915050565b7f4e487b71000000000000000000000000000000000000000000000000000000005f52602260045260245ffd5b5f6002820490506001821680612f0157607f821691505b602082108103612f1457612f13612ebd565b5b50919050565b5f612f2482612256565b9150612f2f83612256565b9250828202612f3d81612256565b91508282048414831517612f5457612f53612dc2565b5b5092915050565b7f4e487b71000000000000000000000000000000000000000000000000000000005f52601260045260245ffd5b5f612f9282612256565b9150612f9d83612256565b925082612fad57612fac612f5b565b5b828204905092915050565b5f819050815f5260205f209050919050565b5f6020601f8301049050919050565b5f82821b905092915050565b5f600883026130147fffffffffffffffffffffffffffffffffffffffffffffffffffffffffffffffff82612fd9565b61301e8683612fd9565b95508019841693508086168417925050509392505050565b5f819050919050565b5f61305961305461304f84612256565b613036565b612256565b9050919050565b5f819050919050565b6130728361303f565b61308661307e82613060565b848454612fe5565b825550505050565b5f90565b61309a61308e565b6130a5818484613069565b505050565b5b818110156130c8576130bd5f82613092565b6001810190506130ab565b5050565b601f82111561310d576130de81612fb8565b6130e784612fca565b810160208510156130f6578190505b61310a61310285612fca565b8301826130aa565b50505b505050565b5f82821c905092915050565b5f61312d5f1984600802613112565b1980831691505092915050565b5f613145838361311e565b9150826002028217905092915050565b61315e8261239b565b67ffffffffffffffff81111561317757613176612946565b5b6131818254612eea565b61318c8282856130cc565b5f60209050601f8311600181146131bd575f84156131ab578287015190505b6131b5858261313a565b86555061321c565b601f1984166131cb86612fb8565b5f5b828110156131f2578489015182556001820191506020850194506020810190506131cd565b8683101561320f578489015161320b601f89168261311e565b8355505b6001600288020188555050505b50505050505056fea2646970667358221220f5bc4c55109cd5892cc81f84cf96672012f47ef17d6d64eee480250bc178ca2664736f6c634300081a0033",
  "immutableReferences": {},
  "source": "// SPDX-License-Identifier: MIT\r\npragma solidity ^0.8.0;\r\n\r\ncontract Organiser {\r\n    struct Player {\r\n        address playerAddress;\r\n        uint256 leaderboardScore;\r\n        bool bHasPlayTicket;\r\n        bool bHasStreamTicket;\r\n    }\r\n\r\n    struct GameData {\r\n        uint256 gameId;\r\n        address organiserAddress;\r\n        string Ipfs;\r\n        uint256 gameTicketPrice;\r\n        uint256 streamTicketPrice;\r\n        uint256 totalRevenue;\r\n        Player[] playersJoined;\r\n    }\r\n\r\n    struct profile {\r\n        uint256[] gamesJoined;\r\n        uint256[] gamesOrganised;\r\n        uint256 moneygained;\r\n        mapping(uint256 => bool) iscollected;\r\n        string ipfsdata;\r\n    }\r\n\r\n    address[] public organisers;\r\n    GameData[] public gamesList;\r\n    mapping(address => profile) ProfileData;\r\n\r\n    function UploadProfile(string memory _ipfsData) public {\r\n        ProfileData[msg.sender].ipfsdata = _ipfsData;\r\n    }\r\n\r\n    function GetProfileIpfs() public view returns (string memory){\r\n        return ProfileData[msg.sender].ipfsdata;\r\n    }\r\n\r\n    function UploadGames(\r\n        string memory _ipfs,\r\n        uint256 _gameTicketPrice,\r\n        uint256 _streamTicketPrice,\r\n        uint256 _prizePoolFromOwner\r\n    ) public payable {\r\n        require(msg.value >= _prizePoolFromOwner, \"Insufficient payment\");\r\n        if (msg.value > _prizePoolFromOwner) {\r\n            payable(msg.sender).transfer(msg.value - _prizePoolFromOwner);\r\n        }\r\n        uint256 newGameId = gamesList.length;\r\n\r\n        gamesList.push();\r\n        GameData storage newGame = gamesList[newGameId];\r\n        newGame.gameId = newGameId;\r\n        newGame.organiserAddress = msg.sender;\r\n        newGame.Ipfs = _ipfs;\r\n        newGame.gameTicketPrice = _gameTicketPrice;\r\n        newGame.streamTicketPrice = _streamTicketPrice;\r\n        newGame.totalRevenue = 0 + _prizePoolFromOwner;\r\n\r\n        ProfileData[msg.sender].gamesOrganised.push(newGameId);\r\n        ProfileData[msg.sender].iscollected[newGameId] = false;\r\n    }\r\n\r\n    function JoinGame(\r\n        uint256 _gameId,\r\n        bool _bHasGameTicket,\r\n        bool _bHasStreamTicket,\r\n        uint256 _maxNoPlayer\r\n    ) public payable {\r\n        if (_gameId >= gamesList.length) {\r\n            revert(\"Game does not exist\");\r\n        }\r\n        require(\r\n            gamesList[_gameId].playersJoined.length < _maxNoPlayer,\r\n            \"Game is full\"\r\n        );\r\n        uint256 totCost = 0;\r\n\r\n        if (_bHasGameTicket) {\r\n            totCost += gamesList[_gameId].gameTicketPrice;\r\n        }\r\n\r\n        if (_bHasStreamTicket) {\r\n            totCost += gamesList[_gameId].streamTicketPrice;\r\n        }\r\n\r\n        require(msg.value >= totCost, \"Insufficient payment\");\r\n\r\n        gamesList[_gameId].playersJoined.push(\r\n            Player({\r\n                playerAddress: msg.sender,\r\n                leaderboardScore: 0,\r\n                bHasStreamTicket: _bHasStreamTicket,\r\n                bHasPlayTicket: _bHasGameTicket\r\n            })\r\n        );\r\n\r\n        ProfileData[msg.sender].gamesJoined.push(_gameId);\r\n        ProfileData[msg.sender].iscollected[_gameId] = false;\r\n\r\n        if (msg.value > totCost) {\r\n            payable(msg.sender).transfer(msg.value - totCost);\r\n        }\r\n    }\r\n\r\n    function UpdateLeaderBoard(uint256 _gameid, uint256 score) public {\r\n        for (uint256 i = 0; i < gamesList[_gameid].playersJoined.length; i++) {\r\n            if (\r\n                gamesList[_gameid].playersJoined[i].playerAddress == msg.sender\r\n            ) {\r\n                gamesList[_gameid].playersJoined[i].leaderboardScore = score;\r\n            }\r\n        }\r\n    }\r\n\r\n    function GetReward(uint256 _gameid) public {\r\n        if (ProfileData[msg.sender].iscollected[_gameid]) return;\r\n\r\n        uint256 len = gamesList[_gameid].playersJoined.length;\r\n        uint256 totalPrizeMoney = gamesList[_gameid].totalRevenue;\r\n        if (msg.sender == gamesList[_gameid].organiserAddress) {\r\n            payable(msg.sender).transfer((15 * totalPrizeMoney) / 100);\r\n            ProfileData[msg.sender].moneygained += (15 * totalPrizeMoney) / 100;\r\n            ProfileData[msg.sender].iscollected[_gameid] = true;\r\n            return;\r\n        }\r\n        if (msg.sender == 0x885dF0Da95b731D9cE9f4f56AFE5762fd23E573C) {\r\n            payable(msg.sender).transfer((5 * totalPrizeMoney) / 100);\r\n            ProfileData[msg.sender].moneygained += (5 * totalPrizeMoney) / 100;\r\n            ProfileData[msg.sender].iscollected[_gameid] = true;\r\n            return;\r\n        }\r\n        uint256 MyScore = 0;\r\n        uint256 position = 1;\r\n        bool tiebraker = false;\r\n        for (uint256 i = 0; i < len; i++) {\r\n            if (\r\n                gamesList[_gameid].playersJoined[i].playerAddress == msg.sender\r\n            ) {\r\n                MyScore = gamesList[_gameid].playersJoined[i].leaderboardScore;\r\n            }\r\n        }\r\n        for (uint256 i = 0; i < len; i++) {\r\n            if (\r\n                gamesList[_gameid].playersJoined[i].playerAddress != msg.sender\r\n            ) {\r\n                if (\r\n                    gamesList[_gameid].playersJoined[i].leaderboardScore >\r\n                    MyScore\r\n                ) {\r\n                    position += 1;\r\n                } else if (\r\n                    gamesList[_gameid].playersJoined[i].leaderboardScore ==\r\n                    MyScore\r\n                ) {\r\n                    if (!tiebraker) {\r\n                        position += 1;\r\n                    }\r\n                }\r\n            } else {\r\n                tiebraker = true;\r\n            }\r\n        } // 5 15 30 20 15 15\r\n        if (position == 1) {\r\n            payable(msg.sender).transfer((30 * totalPrizeMoney) / 100);\r\n            ProfileData[msg.sender].moneygained += (30 * totalPrizeMoney) / 100;\r\n            ProfileData[msg.sender].iscollected[_gameid] = true;\r\n        } else if (position == 2) {\r\n            payable(msg.sender).transfer((20 * totalPrizeMoney) / 100);\r\n            ProfileData[msg.sender].moneygained += (20 * totalPrizeMoney) / 100;\r\n            ProfileData[msg.sender].iscollected[_gameid] = true;\r\n        } else if (position == 3) {\r\n            payable(msg.sender).transfer((15 * totalPrizeMoney) / 100);\r\n            ProfileData[msg.sender].moneygained += (15 * totalPrizeMoney) / 100;\r\n            ProfileData[msg.sender].iscollected[_gameid] = true;\r\n        } else {\r\n            // 4- 4 + 10/100 * len\r\n            uint256 newlen = (len * 10) / 100;\r\n            if (position >= 4 && position <= newlen + 3) {\r\n                payable(msg.sender).transfer(\r\n                    (15 * totalPrizeMoney) / (100 * newlen)\r\n                );\r\n                ProfileData[msg.sender].moneygained +=\r\n                    (15 * totalPrizeMoney) /\r\n                    (100 * newlen);\r\n                ProfileData[msg.sender].iscollected[_gameid] = true;\r\n            }\r\n        }\r\n    }\r\n\r\n    function getGamesList() public view returns (GameData[] memory) {\r\n        return gamesList;\r\n    }\r\n\r\n    function getGameById(uint256 _gameId)\r\n        public\r\n        view\r\n        returns (GameData memory)\r\n    {\r\n        require(_gameId < gamesList.length, \"Game does not exist\");\r\n        return gamesList[_gameId];\r\n    }\r\n\r\n    struct GameStatus {\r\n        uint256 gameId;\r\n        bool isCollected;\r\n    }\r\n\r\n    function getGamesStatus(address user)\r\n        public\r\n        view\r\n        returns (\r\n            uint256[] memory,\r\n            uint256[] memory,\r\n            uint256,\r\n            string memory,\r\n            GameStatus[] memory\r\n        )\r\n    {\r\n        uint256[] memory games = ProfileData[user].gamesJoined;\r\n        uint256[] memory games2 = ProfileData[user].gamesOrganised;\r\n        GameStatus[] memory gameStatuses = new GameStatus[](\r\n            games.length + games2.length\r\n        );\r\n\r\n        for (uint256 i = 0; i < games.length; i++) {\r\n            gameStatuses[i] = GameStatus({\r\n                gameId: games[i],\r\n                isCollected: ProfileData[user].iscollected[games[i]]\r\n            });\r\n        }\r\n        for (uint256 i = games.length; i < games.length + games2.length; i++) {\r\n            gameStatuses[i] = GameStatus({\r\n                gameId: games2[i],\r\n                isCollected: ProfileData[user].iscollected[games2[i]]\r\n            });\r\n        }\r\n\r\n        return (\r\n            ProfileData[user].gamesJoined,\r\n            ProfileData[user].gamesOrganised,\r\n            ProfileData[user].moneygained,\r\n            ProfileData[user].ipfsdata,\r\n            gameStatuses\r\n        );\r\n    }\r\n}\r\n",
  "sourcePath": "E:\\website\\ThetaEdge\\contracts\\Organiser.sol",
  "compiler": {
    "name": "solc",
    "version": "0.8.26+commit.8a97fa7a.Emscripten.clang"
  },
  "schemaVersion": "3.4.16",
  "updatedAt": "2024-07-20T17:22:34.963Z",
  "devdoc": {
    "kind": "dev",
    "methods": {},
    "version": 1
  },
  "userdoc": {
    "kind": "user",
    "methods": {},
    "version": 1
  }
}